:100000000200DC32000000000000003200000000AE
:10001000000000320000000000000032000000007C
:10002000000000320000000000000032000000006C
:10003000000000320000000000000032000000005C
:10004000000000320000000000000032000000004C
:100050000022D2A61150D2A711507F0AD330A60C8D
:1000600030A709DFF8C2A71150C2A6C3920422C26A
:10007000A71150D2A61150D2A72292A71150500C0E
:100080007F0A20A707DFFBD2A6D38013D2A6115088
:100090007F0A20A607DFFBD2A7D38003C2A6C32214
:1000A000D2A71150D2A611507F0A20A605DFFBD39C
:1000B0008007A2A792D5C2A6C3227E0833117A4038
:1000C0000CDEF911A04006A2D55002116F92042255
:1000D00078FB7903D8FED9FCD5E0F52278FFE4F669
:1000E000D8FD758121752000D282D2A3C2A5D290FD
:1000F000D2B7D283D284D285D286C2B7A2829204EA
:100100004003020121740511D0A290920440030221
:100110000121740511D0A2869204500302012151DD
:1001200003A29092045003020139740A11D0A282F2
:10013000920450030201393167A282920440030203
:10014000015E740511D0A2909204400302015E7416
:100150000511D0A2869204500302015E31DCD2B7B1
:100160000200FAC2AF80FE115274C411BA740811B1
:10017000BA740C11BA74A411BA742D11BA74401166
:10018000BA116F741411D0C2A5D290C2A322115219
:1001900074C411BA740811BA740C11BA74A411BAE7
:1001A000742D11BA744011BA116F741411D0C2A514
:1001B000D290C2A322115274C411BA740811BA7435
:1001C0000C11BA74A411BA742D11BA744011BA1179
:1001D0006F741411D0C2A5D290C2A322115274C45C
:1001E00011BA740811BA740C11BA74A411BA74302B
:1001F00011BA749811BA741411D0C297D2A3C290D4
:10020000D2A522115274C411BA740811BA740C1117
:10021000BA74A411BA742D11BA744011BA116F7462
:100220001411D0C297D2A3C290D2A522115274C485
:1002300011BA740811BA740C11BA74A411BA7430DA
:1002400011BA749811BA741411D0C297D2A3C29083
:10025000D2A5220000000000000000000000000005
:00000001FF
